:100000000C9446000C9450000C9450000C9450003A
:100010000C9450000C9450000C9450000C94500020
:100020000C9450000C9450000C9450000C94500010
:100030000C9450000C9450000C9450000C94500000
:100040000C9450000C9450000C9450000C945000F0
:100050000C9450000C9450000C9450000C945000E0
:100060000C9450000C9450000C9450000C945000D0
:100070000C9450000C9450000C9450000C945000C0
:100080000C9450000C9450000C94500011241FBE8E
:10009000CFEFD0E1DEBFCDBF0E9400000C946F0017
:1000A0000C94000020E030E0281739074CF4E9EF09
:1000B000F0E03197F1F700C000002F5F3F4FF4CF21
:1000C00008958FEF81BBCFEFC2BB84EF91E00E9418
:1000D000520012BA84EF91E00E945200F5CFF894DA
:0200E000FFCF50
:00000001FF
