:1000000045C000006AC000007EC0000054C000006F
:1000100052C0000050C000004EC000004CC00000A4
:100020004AC0000048C0000046C0000044C00000B4
:1000300042C0000040C000003EC000003CC00000C4
:100040003AC0000038C0000036C0000034C00000D4
:1000500032C0000030C000002EC000002CC00000E4
:100060002AC0000028C0000026C0000024C00000F4
:1000700022C0000020C000001EC000001CC0000004
:100080001AC0000018C0000016C0000011241FBED6
:10009000CFEFD0E1DEBFCDBF11E0A0E0B1E0ECEDED
:1000A000F1E000E00BBF02C007900D92A430B10751
:1000B000D9F74FD091C0A4CF181619066CF420E0E0
:1000C00030E0E9EFF0E03197F1F700C000002F5F7A
:1000D0003F4F28173907A9F708951F920F920FB6BF
:1000E0000F9211248F9380910201882319F01092AE
:1000F000020103C081E0809302018F910F900FBE37
:100100000F901F9018951F920F920FB60F92112407
:100110008F939F938091000190910101C2969093DB
:100120000101809300019F918F910F900FBE0F905E
:100130001F90189587B38C7F81BBEAE6F0E0808141
:100140008F60808389B7836089BF8FB780688FBFD6
:100150000895CFEFC4BB11BAAB9AECDFCABBC7BBE3
:10016000C0E0D0E06894EE24E7F8F12C01E010E064
:100170006894AA24A4F8B12CC12CD12C05C0CC2D94
:10018000DD2D02C0CA2DDB2DC830D10554F4C801C5
:100190000C2E02C0880F991F0A94E2F788BB1BBA85
:1001A0000AC018BACE010897970102C03595279565
:1001B0008A95E2F72BBB80910001909101017CDFD1
:1001C00080910201882329F02196C131D105E1F601
:0C01D000D6CF2197C8F6D6CFF894FFCF09
:0401DC00F401010029
:00000001FF
