:1000000045C0000053C0000051C000004FC00000B8
:100010004DC000004BC0000049C0000047C00000B8
:1000200045C00000D5C0000041C000003FC0000036
:100030003DC000003BC0000039C0000037C00000D8
:1000400035C0000033C0000031C000002FC00000E8
:100050002DC000002BC0000029C0000027C00000F8
:1000600025C0000023C0000021C000001FC0000008
:100070001DC000001BC0000019C0000017C0000018
:1000800015C0000013C0000011C0000011241FBEE5
:10009000CFEFD0E1DEBFCDBF21E0A0E0B1E001C0F5
:1000A0001D92A130B207E1F7EFD012C2A9CFCF93D2
:1000B000DF93CDB7DEB762970FB6F894DEBF0FBE01
:1000C000CDBF9A8B898B1A82198271C080E090E033
:1000D000A0E8BFE38B839C83AD83BE8320E030E048
:1000E0004AE753E46B817C818D819E8166D1DC017E
:1000F000CB018F839887A987BA8720E030E040E85A
:100100005FE36F81788589859A85D6D088232CF422
:1001100081E090E09C878B873BC020E03FEF4FE77A
:1001200057E46F81788589859A8543D118163CF507
:1001300020E030E040E251E46B817C818D819E8142
:100140003CD1DC01CB01BC01CD01BAD0DC01CB013B
:100150009C878B870FC089E190E09E878D878D8576
:100160009E850197F1F79E878D878B859C850197EA
:100170009C878B878B859C85009769F713C06F815F
:10018000788589859A859CD0DC01CB019C878B87FB
:100190008B859C85988B8F878F8598890197F1F740
:1001A000988B8F8789819A8101969A838983298187
:1001B0003A8189899A89281739070CF487CF629682
:1001C0000FB6F894DEBF0FBECDBFDF91CF9108957B
:1001D0001F920F9200905F000F92112400905B001D
:1001E0000F922F933F938F939F93EF93FF93CF9310
:1001F000DF93CDB7DEB7809100018F5F8093000160
:10020000809100018A3F61F485E390E025E330E0CE
:10021000F901308121E02327FC01208310920001A5
:10022000DF91CF91FF91EF919F918F913F912F910E
:100230000F9000925B000F9000925F000F901F9054
:100240001895CF93DF93CDB7DEB783E490E02AEF24
:10025000FC01208387E590E027E530E0F90120816B
:100260002068FC0120838FE590E02FE530E0F90164
:1002700020812068FC01208385E490E02BE0FC01D4
:100280002083DF91CF910895CF93DF93CDB7DEB771
:1002900084E390E02FEFFC012083D3DF8AEF90E02E
:1002A00006DF85E390E025E330E0F901308120E8C6
:1002B0002327FC012083F2CF2FD008F481E008959A
:1002C00057D088F09F5790F0B92F9927B751A0F0D9
:1002D000D1F0660F771F881F991F1AF0BA95C9F7DA
:1002E00012C0B13081F05ED0B1E008955BC0672FDD
:1002F000782F8827B85F39F0B93FCCF3869577958A
:100300006795B395D9F73EF4909580957095619572
:100310007F4F8F4F9F4F0895990F0008550FAA0BDD
:10032000E0E8FEEF16161706E807F907C0F0121608
:100330001306E407F50798F0621B730B840B950B0B
:1003400039F40A2661F0232B242B252B21F4089560
:100350000A2609F4A140A6958FEF811D811D0895FD
:1003600057FD9058440F551F59F05F3F71F0479566
:10037000880F97FB991F61F09F3F79F0879508954B
:10038000121613061406551FF2CF4695F1DF08C06A
:10039000161617061806991FF1CF86957105610587
:1003A00008940895E894BB2766277727CB0197F92F
:1003B0000895B2DF08F48FEF08950BD078C069D0AC
:1003C00028F06ED018F0952309F05AC05FC01124B0
:1003D000EACFC6DFA0F3959FD1F3950F50E0551FEC
:1003E000629FF001729FBB27F00DB11D639FAA278A
:1003F000F00DB11DAA1F649F6627B00DA11D661FD9
:10040000829F2227B00DA11D621F739FB00DA11DF9
:10041000621F839FA00D611D221F749F3327A00DB3
:10042000611D231F849F600D211D822F762F6A2F4F
:1004300011249F5750408AF0E1F088234AF0EE0FD4
:10044000FF1FBB1F661F771F881F91505040A9F7E1
:100450009E3F510570F014C0A6CF5F3FECF3983E6D
:10046000DCF3869577956795B795F795E7959F5F48
:10047000C1F7FE2B880F911D9695879597F90895E2
:1004800097F99F6780E870E060E008959FEF80EC47
:10049000089500240A9416161706180609060895EA
:1004A00000240A9412161306140605060895092E50
:1004B0000394000C11F4882352F0BB0F40F4BF2BBF
:1004C00011F460FF04C06F5F7F4F8F4F9F4F0895FF
:0404D000F894FFCFCE
:00000001FF
