S00E0000646167335F332E7372656325
S113000045C0000061C000005FC000005DC000008A
S11300105BC0000059C0000057C0000055C000007C
S113002053C000004BC600004FC000004DC000008C
S11300304BC0000049C0000047C0000045C000009C
S113004043C0000041C000003FC000003DC00000AC
S11300503BC0000039C0000037C0000035C00000BC
S113006033C0000031C000002FC000002DC00000CC
S11300702BC0000029C0000027C0000025C00000DC
S113008023C0000021C000001FC0000011241FBEB7
S1130090CFEFD0E1DEBFCDBF11E0A0E0B1E0E2E3FD
S11300A0F8E100E00BBF02C007900D92A831B10740
S11300B0D9F721E0A8E1B1E001C01D92AE31B20749
S11300C0E1F75BD60C94170C9BCFCF93DF93CDB79E
S11300D0DEB7E9970FB6F894DEBF0FBECDBF89AF88
S11300E085E390E029AD207FFC01208385E390E047
S11300F025E330E0F90120812860FC01208380E0C1
S113010090E0A0E8BFE389839A83AB83BC8320E0BB
S113011030E04AE753E469817A818B819C810AD774
S1130120DC01CB018D839E83AF83B88720E030E070
S113013040E85FE36D817E818F8198857AD688233C
S11301402CF481E090E09A8789873BC020E03FEF60
S11301504FE757E46D817E818F819885E7D6181625
S11301603CF520E030E040E251E469817A818B8102
S11301709C81E0D6DC01CB01BC01CD015ED6DC0163
S1130180CB019A8789870FC089E190E09C878B8790
S11301908B859C850197F1F79C878B8789859A8548
S11301A001979A87898789859A85009769F713C08B
S11301B06D817E818F81988540D6DC01CB019A8741
S11301C0898789859A859E878D878D859E850197E8
S11301D0F1F79E878D8785E390E0FC01108280E033
S11301E090E0A0EAB0E48F87988BA98BBA8B20E0CB
S11301F030E04AE753E46F85788989899A899AD6E9
S1130200DC01CB018B8B9C8BAD8BBE8B20E030E073
S113021040E85FE36B897C898D899E890AD68823AF
S11302202CF481E090E0988F8F8B3BC020E03FEF6F
S11302304FE757E46B897C898D899E8977D6181698
S11302403CF520E030E040E251E46F85788989890B
S11302509A8970D6DC01CB01BC01CD01EED5DC015D
S1130260CB01988F8F8B0FC089E190E09A8F898F93
S1130270898D9A8D0197F1F79A8F898F8F89988D3F
S11302800197988F8F8B8F89988D009769F713C08A
S11302906B897C898D899E89D0D5DC01CB01988FAF
S11302A08F8B8F89988D9C8F8B8F8B8D9C8D0197D5
S11302B0F1F79C8F8B8F85E390E029AD222F30E0FE
S11302C022953295307F3227207F3227FC0120830C
S11302D085E390E025E330E0F90120812860FC010A
S11302E0208380E090E0A0E8BFE38D8F9E8FAF8FE6
S11302F0B8A320E030E04AE753E46D8D7E8D8F8D06
S113030098A118D6DC01CB0189A39AA3ABA3BCA303
S113031020E030E040E85FE369A17AA18BA19CA1D1
S113032088D588232CF481E090E09EA38DA33BC064
S113033020E03FEF4FE757E469A17AA18BA19CA18C
S1130340F5D518163CF520E030E040E251E46D8D1F
S11303507E8D8F8D98A1EED5DC01CB01BC01CD0142
S11303606CD5DC01CB019EA38DA30FC089E190E085
S113037098A78FA38FA198A50197F1F798A78FA3AA
S11303808DA19EA101979EA38DA38DA19EA10097EF
S113039069F713C069A17AA18BA19CA14ED5DC0198
S11303A0CB019EA38DA38DA19EA19AA789A789A500
S11303B09AA50197F1F79AA789A785E390E0FC0134
S11303C0108280E090E0A0EAB0E48BA79CA7ADA7E0
S11303D0BEA720E030E04AE753E46BA57CA58DA5D9
S11303E09EA5A8D5DC01CB018FA798ABA9ABBAAB6E
S11303F020E030E040E85FE36FA578A989A99AA9D5
S113040018D588232CF481E090E09CAB8BAB3BC0E7
S113041020E03FEF4FE757E46FA578A989A99AA98F
S113042085D518163CF520E030E040E251E46BA598
S11304307CA58DA59EA57ED5DC01CB01BC01CD019B
S1130440FCD4DC01CB019CAB8BAB0FC089E190E009
S11304509EAB8DAB8DA99EA90197F1F79EAB8DAB99
S11304608BA99CA901979CAB8BAB8BA99CA90097EA
S113047069F713C06FA578A989A99AA9DED4DC010C
S1130480CB019CAB8BAB8BA99CA998AF8FAB8FA9ED
S113049098AD0197F1F798AF8FABE9960FB6F89442
S11304A0DEBF0FBECDBFDF91CF910895CF93DF9311
S11304B0CDB7DEB7E9970FB6F894DEBF0FBECDBF58
S11304C089AF85E390E029AD207FFC01208385E39B
S11304D090E025E330E0F90120812C60FC012083C9
S11304E080E090E0A0E8BFE389839A83AB83BC8378
S11304F020E030E04AE753E469817A818B819C8172
S113050019D5DC01CB018D839E83AF83B88720E0AE
S113051030E040E85FE36D817E818F81988589D4E6
S113052088232CF481E090E09A8789873BC020E0FF
S11305303FEF4FE757E46D817E818F819885F6D434
S113054018163CF520E030E040E251E469817A81FC
S11305508B819C81EFD4DC01CB01BC01CD016DD436
S1130560DC01CB019A8789870FC089E190E09C87E1
S11305708B878B859C850197F1F79C878B87898571
S11305809A8501979A87898789859A85009769F75B
S113059013C06D817E818F8198854FD4DC01CB019E
S11305A09A87898789859A859E878D878D859E857B
S11305B00197F1F79E878D8785E390E024E0FC01A5
S11305C0208380E090E0A0EAB0E48F87988BA98B29
S11305D0BA8B20E030E04AE753E46F857889898953
S11305E09A89A8D4DC01CB018B8B9C8BAD8BBE8B01
S11305F020E030E040E85FE36B897C898D899E8947
S113060018D488232CF481E090E0988F8F8B3BC022
S113061020E03FEF4FE757E46B897C898D899E8901
S113062085D418163CF520E030E040E251E46F85B3
S1130630788989899A897ED4DC01CB01BC01CD01FA
S1130640FCD3DC01CB01988F8F8B0FC089E190E044
S11306509A8F898F898D9A8D0197F1F79A8F898F57
S11306608F89988D0197988F8F8B8F89988D00979C
S113067069F713C06B897C898D899E89DED3DC017F
S1130680CB01988F8F8B8F89988D9C8F8B8F8B8DBF
S11306909C8D0197F1F79C8F8B8F85E390E029ADBA
S11306A0222F30E022953295307F3227207F322767
S11306B0FC01208385E390E025E330E0F90120810B
S11306C02C60FC01208380E090E0A0E8BFE38D8FE4
S11306D09E8FAF8FB8A320E030E04AE753E46D8DDE
S11306E07E8D8F8D98A126D4DC01CB0189A39AA39A
S11306F0ABA3BCA320E030E040E85FE369A17AA1AA
S11307008BA19CA196D388232CF481E090E09EA336
S11307108DA33BC020E03FEF4FE757E469A17AA1E6
S11307208BA19CA103D418163CF520E030E040E2F4
S113073051E46D8D7E8D8F8D98A1FCD3DC01CB01AE
S1130740BC01CD017AD3DC01CB019EA38DA30FC0E4
S113075089E190E098A78FA38FA198A50197F1F75D
S113076098A78FA38DA19EA101979EA38DA38DA170
S11307709EA1009769F713C069A17AA18BA19CA1DE
S11307805CD3DC01CB019EA38DA38DA19EA19AA76E
S113079089A789A59AA50197F1F79AA789A785E35F
S11307A090E0FC01108280E090E0A0EAB0E48BA726
S11307B09CA7ADA7BEA720E030E04AE753E46BA5B1
S11307C07CA58DA59EA5B6D3DC01CB018FA798ABE4
S11307D0A9ABBAAB20E030E040E85FE36FA578A9AD
S11307E089A99AA926D388232CF481E090E09CABB4
S11307F08BAB3BC020E03FEF4FE757E46FA578A9F0
S113080089A99AA993D318163CF520E030E040E278
S113081051E46BA57CA58DA59EA58CD3DC01CB01F1
S1130820BC01CD010AD3DC01CB019CAB8BAB0FC067
S113083089E190E09EAB8DAB8DA99EA90197F1F75C
S11308409EAB8DAB8BA99CA901979CAB8BAB8BA961
S11308509CA9009769F713C06FA578A989A99AA9DB
S1130860ECD2DC01CB019CAB8BAB8BA99CA998AFE0
S11308708FAB8FA998AD0197F1F798AF8FABE9963D
S11308800FB6F894DEBF0FBECDBFDF91CF910895B0
S1130890CF93DF93CDB7DEB72E970FB6F894DEBFB4
S11308A00FBECDBF84E390E02CEFFC01208381E0F8
S11308B00CDC82E00ADC88E208DC8CE006DC86E002
S11308C004DC80E802DC80E090E0A0EAB1E4898303
S11308D09A83AB83BC8320E030E04AE753E4698128
S11308E07A818B819C8126D3DC01CB018D839E830D
S11308F0AF83B88720E030E040E85FE36D817E811C
S11309008F81988596D288232CF481E090E09A8791
S113091089873BC020E03FEF4FE757E46D817E813C
S11309208F81988503D318163CF520E030E040E22F
S113093051E469817A818B819C81FCD2DC01CB01F9
S1130940BC01CD017AD2DC01CB019A8789870FC023
S113095089E190E09C878B878B859C850197F1F7D3
S11309609C878B8789859A8501979A87898789854A
S11309709A85009769F713C06D817E818F81988570
S11309805CD2DC01CB019A87898789859A859E8709
S11309908D878D859E850197F1F79E878D872E968D
S11309A00FB6F894DEBF0FBECDBFDF91CF9108958F
S11309B00F931F93CF93DF9300D000D0CDB7DEB752
S11309C09C838B8381E081DB80E87FDB1A82198240
S11309D00EC089819A812B813C81820F931FFC0177
S11309E0808164DD89819A8101969A838983098152
S11309F01A818B819C8150D40817190750F30F90EA
S1130A000F900F900F90DF91CF911F910F91089548
S1130A100F931F93CF93DF9300D000D01F92CDB7D5
S1130A20DEB79C838B836D838D8180584EDB1A8265
S1130A3019820EC089819A812B813C81820F931F78
S1130A40FC01808133DD89819A8101969A838983AF
S1130A5009811A818B819C811FD40817190750F3CF
S1130A600F900F900F900F900F90DF91CF911F91E7
S1130A700F9108950F931F93CF93DF9300D000D06D
S1130A80CDB7DEB79C838B8380EC1FDB1A8219827F
S1130A900EC089819A812B813C81820F931FFC01B6
S1130AA0808104DD89819A8101969A8389830981F1
S1130AB01A818B819C81F0D30817190750F30F908A
S1130AC00F900F900F90DF91CF911F910F91089588
S1130AD00F931F93CF93DF9300D000D01F92CDB715
S1130AE0DEB79C838B836D838D818054EEDA1A820A
S1130AF019820EC089819A812B813C81820F931FB8
S1130B00FC018081D3DC89819A8101969A8389834F
S1130B1009811A818B819C81BFD30817190750F36F
S1130B200F900F900F900F900F90DF91CF911F9126
S1130B300F910895CF93DF9300D000D000D0CDB7AC
S1130B40DEB79E838D838D819E8199231CF49195BC
S1130B50819591099C838B831A8219820EC08D81A1
S1130B609E8199231CF488E1B0DA02C08CE1ADDAED
S1130B7089819A8101969A83898329813A818B811B
S1130B809C81281739075CF326960FB6F894DEBFCC
S1130B900FBECDBFDF91CF910895CF93DF93CDB733
S1130BA0DEB762970FB6F894DEBF0FBECDBF9A8B47
S1130BB0898B1A82198271C080E090E0A0E8BFE3BB
S1130BC08B839C83AD83BE8320E030E04AE753E40B
S1130BD06B817C818D819E81ADD1DC01CB018F83C2
S1130BE09887A987BA8720E030E040E85FE36F8107
S1130BF0788589859A851DD188232CF481E090E03D
S1130C009C878B873BC020E03FEF4FE757E46F8121
S1130C10788589859A858AD118163CF520E030E0DC
S1130C2040E251E46B817C818D819E8183D1DC0122
S1130C30CB01BC01CD0101D1DC01CB019C878B87A9
S1130C400FC089E190E09E878D878D859E850197F1
S1130C50F1F79E878D878B859C8501979C878B8771
S1130C608B859C85009769F713C06F81788589858A
S1130C709A85E3D0DC01CB019C878B878B859C858F
S1130C80988B8F878F8598890197F1F7988B8F8739
S1130C9089819A8101969A83898329813A818989F4
S1130CA09A89281739070CF487CF62960FB6F894FF
S1130CB0DEBF0FBECDBFDF91CF9108951F920F927B
S1130CC000905F000F92112400905B000F922F930D
S1130CD03F934F935F936F937F938F939F93AF93C0
S1130CE0BF93EF93FF93CF93DF93CDB7DEB780919C
S1130CF0180190911901019690931901809318019C
S1130D0081E090E0E2D9DF91CF91FF91EF91BF9123
S1130D10AF919F918F917F916F915F914F913F918F
S1130D202F910F9000925B000F9000925F000F9044
S1130D301F901895CF93DF93CDB7DEB783E490E08F
S1130D4028E1FC01208387E590E027E530E0F90104
S1130D5020812068FC0120838FE590E02FE530E0BE
S1130D60F90120812068FC01208385E490E02FE1D3
S1130D70FC012083DF91CF910895CF93DF9300D0BE
S1130D80CDB7DEB785DD81E390E021E330E0F90102
S1130D9020812F77FC0120838AE390E02FEFFC0170
S1130DA0208387E390E02FEFFC012083C3DF85E0FD
S1130DB090E04BD19A8389832091180130911901D5
S1130DC084E490E0FC018081882F90E0432F4F93CE
S1130DD02F93292F2F938F9386E091E0892F8F9360
S1130DE086E091E08F938A818F9389818F935DD27E
S1130DF08DB79EB708960FB6F894DEBF0FBECDBF71
S1130E0089819A8160E070E003DE8BE390E024E462
S1130E1030E0F9012081FC01208388E390E02091F7
S1130E20180130911901FC01208384E690E0B5DEBD
S1130E30C3CF2FD008F481E0089557D088F09F578E
S1130E4090F0B92F9927B751A0F0D1F0660F771F12
S1130E50881F991F1AF0BA95C9F712C0B13081F0F2
S1130E605ED0B1E008955BC0672F782F8827B85F04
S1130E7039F0B93FCCF3869577956795B395D9F753
S1130E803EF490958095709561957F4F8F4F9F4F5D
S1130E900895990F0008550FAA0BE0E8FEEF161607
S1130EA01706E807F907C0F012161306E407F5075A
S1130EB098F0621B730B840B950B39F40A2661F0CE
S1130EC0232B242B252B21F408950A2609F4A14071
S1130ED0A6958FEF811D811D089557FD9058440FED
S1130EE0551F59F05F3F71F04795880F97FB991F85
S1130EF061F09F3F79F08795089512161306140642
S1130F00551FF2CF4695F1DF08C0161617061806CE
S1130F10991FF1CF86957105610508940895E894A9
S1130F20BB2766277727CB0197F90895B2DF08F42A
S1130F308FEF08950BD078C069D028F06ED018F0E8
S1130F40952309F05AC05FC01124EACFC6DFA0F38D
S1130F50959FD1F3950F50E0551F629FF001729F4A
S1130F60BB27F00DB11D639FAA27F00DB11DAA1F69
S1130F70649F6627B00DA11D661F829F2227B00DB6
S1130F80A11D621F739FB00DA11D621F839FA00D41
S1130F90611D221F749F3327A00D611D231F849F91
S1130FA0600D211D822F762F6A2F11249F575040E8
S1130FB08AF0E1F088234AF0EE0FFF1FBB1F661F83
S1130FC0771F881F91505040A9F79E3F510570F03C
S1130FD014C0A6CF5F3FECF3983EDCF3869577957B
S1130FE06795B795F795E7959F5FC1F7FE2B880F37
S1130FF0911D9695879597F9089597F99F6780E8CD
S113100070E060E008959FEF80EC089500240A9456
S11310101616170618060906089500240A941216CF
S11310201306140605060895092E0394000C11F402
S1131030882352F0BB0F40F4BF2B11F460FF04C0AF
S11310406F5F7F4F8F4F9F4F0895CF93DF93823011
S1131050910510F482E090E0E0911C01F0911D01F3
S113106020E030E0A0E0B0E0309739F140815181D8
S113107048175907B8F04817590771F482819381CA
S1131080109729F013969C938E9312972CC09093EB
S11310901D0180931C0127C02115310531F0421731
S11310A0530718F0A901DB0101C0EF019A01BD014A
S11310B0DF010280F381E02DD7CF21153105F9F04E
S11310C0281B390B2430310580F48A819B816115FA
S11310D0710521F0FB019383828304C090931D0169
S11310E080931C01FE01329644C0FE01E20FF31FFF
S11310F08193919322503109398328833AC02091F6
S11311001A0130911B01232B41F4209102013091EB
S1131110030130931B0120931A01209100013091A7
S113112001012115310541F42DB73EB74091040169
S113113050910501241B350BE0911A01F0911B011C
S1131140E217F307A0F42E1B3F0B2817390778F09A
S1131150AC014E5F5F4F2417350748F04E0F5F1FF9
S113116050931B0140931A018193919302C0E0E0D4
S1131170F0E0CF01DF91CF910895CF93DF930097F3
S113118009F487C0FC01329713821282C0911C01BA
S1131190D0911D01209781F420813181280F391FBE
S11311A080911A0190911B018217930779F5F093AE
S11311B01B01E0931A016DC0DE0120E030E0AE17A0
S11311C0BF0750F412964D915C9113979D01411500
S11311D0510509F1DA01F3CFB383A2834081518130
S11311E0840F951F8A179B0771F48D919C91119719
S11311F0840F951F02969183808312968D919C9102
S11312001397938382832115310529F4F0931D01EB
S1131210E0931C013EC0D9011396FC93EE93129700
S11312204D915D91A40FB51FEA17FB0779F48081F6
S11312309181840F951F0296D90111969C938E93E8
S11312408281938113969C938E931297E0E0F0E051
S11312508A819B81009719F0FE01EC01F9CFCE0140
S1131260029628813981820F931F20911A013091AF
S11312701B012817390769F4309729F410921D01CE
S113128010921C0102C013821282D0931B01C093DE
S11312901A01DF91CF910895FC0101900020E9F734
S11312A0809590958E0F9F1F08950F931F93CF9352
S11312B0DF93CDB7DEB72E970FB6F894DEBF0FBE1F
S11312C0CDBF0D891E8986E08C831A8309838FEF35
S11312D09FE79E838D83AE01475E5F4F6F89788D54
S11312E0CE01019610D0EF81F885E00FF11F108236
S11312F02E960FB6F894DEBF0FBECDBFDF91CF910F
S11313001F910F9108952F923F924F925F926F9287
S11313107F928F929F92AF92BF92CF92DF92EF9281
S1131320FF920F931F93CF93DF93CDB7DEB72C9724
S11313300FB6F894DEBF0FBECDBF7C016B018A01EE
S1131340FC0117821682838181FFB0C1CE01019610
S11313504C01F7019381F60193FD859193FF8191EF
S11313606F01882309F49EC1853239F493FD859178
S113137093FF81916F01853221F4B70190E0C7D1C9
S1131380E8CF512C312C20E02032A0F48B3269F0CC
S113139030F4803259F0833269F420612CC08D32EC
S11313A039F0803339F4216026C02260246023C0E0
S11313B0286021C027FD27C030ED380F3A3078F47B
S11313C026FF06C0FAE05F9E300D1124532E13C091
S11313D08AE0389E300D1124332E20620CC08E32E8
S11313E021F426FD5FC1206406C08C3611F4206808
S11313F002C0883641F4F60193FD859193FF8191F3
S11314006F018111C1CF982F9F7D9554933028F49B
S11314100C5F1F4FFFE3F9830DC0833631F0833730
S113142071F0833509F057C021C0F80180818983A8
S11314300E5F1F4F44244394512C540114C03801AF
S1131440F2E06F0E711CF801A080B18026FF03C08A
S1131450652D70E002C06FEF7FEFC5012C874CD182
S11314602C0183012C852F77222E16C03801F2E03F
S11314706F0E711CF801A080B18026FF03C0652D9A
S113148070E002C06FEF7FEFC5012C872AD12C01D9
S11314902C852068222E830123FC19C0832D90E023
S11314A048165906A0F4B70180E290E030D13A948E
S11314B0F5CFF50127FC859127FE81915F01B701E6
S11314C090E025D131103A94F1E04F1A51084114BB
S11314D0510479F7DEC0843611F0893631F5F8010C
S11314E027FF07C060817181828193810C5F1F4F48
S11314F008C060817181882777FD8095982F0E5FE1
S11315001F4F2F76B22E97FF09C090958095709546
S113151061957F4F8F4F9F4F2068B22E2AE030E0B5
S1131520A40127D1A82EA81843C0853729F42F7EFB
S1131530B22E2AE030E025C0F22FF97FBF2E8F367D
S1131540C1F018F4883579F0ADC0803719F08837C8
S113155021F0A8C02F2F2061B22EB4FE0DC08B2D18
S11315608460B82E09C024FF0AC09F2F9660B92E4C
S113157006C028E030E005C020E130E002C020E1F0
S113158032E0F801B7FE07C06081718182819381E6
S11315900C5F1F4F06C06081718180E090E00E5F98
S11315A01F4FA401E6D0A82EA818FB2DFF77BF2E4D
S11315B0B6FE0BC02B2D2E7FA51450F4B4FE0AC02A
S11315C0B2FC08C02B2D2E7E05C07A2C2B2D03C017
S11315D07A2C01C0752C24FF0DC0FE01EA0DF11D0B
S11315E08081803311F4297E09C022FF06C07394E0
S11315F0739404C0822F867809F0739423FD12C07B
S113160020FF06C05A2C731418F4530C5718732C6B
S1131610731460F4B70180E290E02C8778D073945F
S11316202C85F6CF731410F4371801C0312C24FF25
S113163011C0B70180E390E02C8769D02C8522FF8C
S113164016C021FF03C088E590E002C088E790E05F
S1131650B7010CC0822F867851F021FD02C080E2D0
S113166001C08BE227FD8DE2B70190E050D0A514B4
S113167030F4B70180E390E04AD05A94F8CFAA94AA
S1131680F401EA0DF11D8081B70190E040D0A11072
S1131690F6CF332009F45DCEB70180E290E037D075
S11316A03A94F7CFF7018681978102C08FEF9FEFBD
S11316B02C960FB6F894DEBF0FBECDBFDF91CF914D
S11316C01F910F91FF90EF90DF90CF90BF90AF905C
S11316D09F908F907F906F905F904F903F902F904E
S11316E00895FC010590615070400110D8F7809571
S11316F090958E0F9F1F0895FC01615070400190DA
S11317000110D8F7809590958E0F9F1F08950F9321
S11317101F93CF93DF93182F092FEB018B8181FD4A
S113172003C08FEF9FEF20C082FF10C04E815F8106
S11317302C813D81421753077CF4E881F9819F0194
S11317402F5F3F4F39832883108306C0E885F985CE
S1131750812F0995892B29F72E813F812F5F3F4FD8
S11317603F832E83812F902FDF91CF911F910F9173
S11317700895FA01AA27283051F1203181F1E89423
S11317806F936E7F6E5F7F4F8F4F9F4FAF4FB1E070
S11317903ED0B4E03CD0670F781F891F9A1FA11D6B
S11317A0680F791F8A1F911DA11D6A0F711D811D6C
S11317B0911DA11D20D009F468943F912AE0269F31
S11317C011243019305D3193DEF6CF010895462F90
S11317D04770405D4193B3E00FD0C9F7F6CF462F71
S11317E04F70405D4A3318F0495D31FD40524193DA
S11317F002D0A9F7EACFB4E0A69597958795779597
S11318006795BA95C9F700976105710508959B011D
S1131810AC010A2E06945795479537952795BA95A6
S1131820C9F7620F731F841F951FA01D0895F894B4
S1051830FFCFE4
S113183200001E01200056616C313A2025642056B6
S10B1842616C323A20256400B8
S9030000FC
