:1000000045C0000053C0000051C000004FC00000B8
:100010004DC000004BC0000049C0000047C00000B8
:1000200045C0000043C0000041C000003FC00000C8
:100030003DC000003BC0000039C0000037C00000D8
:1000400035C0000033C0000031C000002FC00000E8
:100050002DC000002BC0000029C0000027C00000F8
:1000600025C0000023C0000021C000001FC0000008
:100070001DC000001BC0000019C0000017C0000018
:1000800015C0000013C0000011C0000011241FBEE5
:10009000CFEFD0E1DEBFCDBF21E0A0E0B1E001C0F5
:1000A0001D92A030B207E1F7E9D081C2A9CFCF936A
:1000B000DF93CDB7DEB762970FB6F894DEBF0FBE01
:1000C000CDBF9A8B898B1A82198271C080E090E033
:1000D000A0E8BFE38B839C83AD83BE8320E030E048
:1000E0004AE753E46B817C818D819E81D5D1DC010F
:1000F000CB018F839887A987BA8720E030E040E85A
:100100005FE36F81788589859A8545D188232CF4B2
:1001100081E090E09C878B873BC020E03FEF4FE77A
:1001200057E46F81788589859A85B2D118163CF598
:1001300020E030E040E251E46B817C818D819E8142
:10014000ABD1DC01CB01BC01CD0129D1DC01CB015C
:100150009C878B870FC089E190E09E878D878D8576
:100160009E850197F1F79E878D878B859C850197EA
:100170009C878B878B859C85009769F713C06F815F
:10018000788589859A850BD1DC01CB019C878B878B
:100190008B859C85988B8F878F8598890197F1F740
:1001A000988B8F8789819A8101969A838983298187
:1001B0003A8189899A89281739070CF487CF629682
:1001C0000FB6F894DEBF0FBECDBFDF91CF9108957B
:1001D000CF93DF93CDB7DEB78AE490E0FC011182C4
:1001E000108288E490E0FC011182108288E790E0A0
:1001F000FC01118210828FE490E029EAFC01208347
:100200008EE490E02BE0FC012083DF91CF910895F4
:10021000CF93DF931F92CDB7DEB789838AE490E056
:100220002981222F30E0FC01318320830F90DF9160
:10023000CF910895CF93DF931F92CDB7DEB7898317
:1002400088E490E02981222F30E0FC013183208373
:100250000F90DF91CF910895CF93DF931F92CDB789
:10026000DEB7898388E790E02981222F30E0FC0106
:10027000318320830F90DF91CF910895CF93DF9347
:10028000CDB7DEB72C970FB6F894DEBF0FBECDBF4B
:1002900087E390E02FEFFC0120839ADF84E690E073
:1002A00006DF81E090E09A83898381E090E09C837F
:1002B0008B8381E090E09E838D8380E0A9DF1886A8
:1002C0001F8250C08F81A4DF89819A8102969A8310
:1002D000898384E690E0EBDE1A86198631C0898531
:1002E000A9DF8B819C8102969C838B838AE090E0BE
:1002F000DEDE1C861B8612C08B85AEDF8D819E8163
:1003000002969E838D838AE090E0D1DE2B853C852A
:100310008D819E81820F931F9C878B878B859C8507
:100320008F3F910549F344F381E090E09E838D83F4
:1003300029853A858B819C81820F931F9A878987B3
:1003400089859A858F3F910551F24CF281E090E0CA
:100350009C838B832F81388589819A81820F931F9B
:1003600098878F838F8198858F3F910509F00CF4D2
:10037000A9CF80E04DDF81E090E09A83898381E01E
:1003800090E09C838B8381E090E09E838D8384E664
:1003900090E08DDE86CF2FD008F481E0089557D00D
:1003A00088F09F5790F0B92F9927B751A0F0D1F05E
:1003B000660F771F881F991F1AF0BA95C9F712C0E8
:1003C000B13081F05ED0B1E008955BC0672F782F27
:1003D0008827B85F39F0B93FCCF386957795679554
:1003E000B395D9F73EF490958095709561957F4FC0
:1003F0008F4F9F4F0895990F0008550FAA0BE0E803
:10040000FEEF16161706E807F907C0F012161306D6
:10041000E407F50798F0621B730B840B950B39F416
:100420000A2661F0232B242B252B21F408950A267C
:1004300009F4A140A6958FEF811D811D089557FDF8
:100440009058440F551F59F05F3F71F04795880F42
:1004500097FB991F61F09F3F79F0879508951216D9
:1004600013061406551FF2CF4695F1DF08C0161685
:1004700017061806991FF1CF869571056105089436
:100480000895E894BB2766277727CB0197F908954D
:10049000B2DF08F48FEF08950BD078C069D028F050
:1004A0006ED018F0952309F05AC05FC01124EACF2E
:1004B000C6DFA0F3959FD1F3950F50E0551F629FC3
:1004C000F001729FBB27F00DB11D639FAA27F00DAD
:1004D000B11DAA1F649F6627B00DA11D661F829FD4
:1004E0002227B00DA11D621F739FB00DA11D621FB9
:1004F000839FA00D611D221F749F3327A00D611DD6
:10050000231F849F600D211D822F762F6A2F1124B7
:100510009F5750408AF0E1F088234AF0EE0FFF1F0A
:10052000BB1F661F771F881F91505040A9F79E3F41
:10053000510570F014C0A6CF5F3FECF3983EDCF39A
:10054000869577956795B795F795E7959F5FC1F77E
:10055000FE2B880F911D9695879597F9089597F929
:100560009F6780E870E060E008959FEF80EC089559
:1005700000240A9416161706180609060895002482
:100580000A9412161306140605060895092E0394FC
:10059000000C11F4882352F0BB0F40F4BF2B11F470
:1005A00060FF04C06F5F7F4F8F4F9F4F0895F89497
:0205B000FFCF7B
:00000001FF
