S00F0000646167355F37612E73726563BD
S113000045C000004BC0000049C0000047C00000CC
S113001045C0000043C0000041C000003FC00000D4
S11300203DC000003BC0000039C0000037C00000E4
S113003035C0000033C0000031C000002FC00000F4
S11300402DC000002BC0000029C0000027C0000004
S113005025C0000023C0000021C000001FC0000014
S11300601DC000001BC0000019C0000017C0000024
S113007015C0000013C0000011C000000FC0000034
S11300800DC000000BC0000009C0000011241FBEF9
S1130090CFEFD0E1DEBFCDBF42D344C5B1CFCF93C4
S11300A0DF93CDB7DEB762970FB6F894DEBF0FBE0D
S11300B0CDBF9A8B898B1A82198271C080E090E03F
S11300C0A0E8BFE38B839C83AD83BE8320E030E054
S11300D04AE753E46B817C818D819E8199D4DC0154
S11300E0CB018F839887A987BA8720E030E040E866
S11300F05FE36F81788589859A859FD388232CF463
S113010081E090E09C878B873BC020E03FEF4FE786
S113011057E46F81788589859A8576D418163CF5DD
S113012020E030E040E251E46B817C818D819E814E
S11301306FD4DC01CB01BC01CD0188D3DC01CB0140
S11301409C878B870FC089E190E09E878D878D8582
S11301509E850197F1F79E878D878B859C850197F6
S11301609C878B878B859C85009769F713C06F816B
S1130170788589859A856AD3DC01CB019C878B8736
S11301808B859C85988B8F878F8598890197F1F74C
S1130190988B8F8789819A8101969A838983298193
S11301A03A8189899A89281739070CF487CF62968E
S11301B00FB6F894DEBF0FBECDBFDF91CF91089587
S11301C0CF93DF93CDB7DEB787E390E02FEFFC0149
S11301D0208387E390E027E330E0F9012081277F43
S11301E0FC01208388E390E028E330E0F9012081DA
S11301F02160FC0120838DE290E022E5FC01208354
S1130200DF91CF910895CF93DF931F92CDB7DEB7DF
S113021089838FE290E02981FC01208300008EE233
S113022090E0FC0180818823D4F70F90DF91CF9177
S11302300895CF93DF931F92CDB7DEB789838FE202
S113024090E02981FC01208300008EE290E0FC0113
S113025080818823D4F78FE290E0FC018081898338
S113026089810F90DF91CF910895CF93DF931F92EF
S1130270CDB7DEB7898388E390E028E330E0F90165
S11302802081622F2981422F50E021E030E0042EAA
S113029002C0220F331F0A94E2F720952623FC01A3
S11302A020830F90DF91CF910895CF93DF931F9216
S11302B0CDB7DEB7898388E390E028E330E0F90125
S11302C02081622F2981422F50E021E030E0042E6A
S11302D002C0220F331F0A94E2F7262BFC0120836D
S11302E00F90DF91CF910895CF93DF93CDB7DEB711
S11302F080E0BBDF89E087DF8FEF85DF80E0D5DF3B
S113030080E0B3DF8AE07FDF84E07DDF80E0CDDF63
S113031080E0ABDF8BE077DF83E075DF80E0C5DF73
S113032080E0A3DF8CE06FDF81E06DDF80E0BDDF84
S1130330DF91CF910895CF93DF93CDB7DEB780E0FF
S113034094DF8CE060DF81E05EDF80E0AEDFDF9190
S1130350CF910895CF93DF93CDB7DEB780E085DFEB
S11303608CE051DF80E04FDF80E09FDFDF91CF91B1
S11303700895CF93DF9300D0CDB7DEB789836A8326
S113038080E073DF89813FDF8A813DDF80E08DDF9C
S11303900F900F90DF91CF910895CF93DF93CDB756
S11303A0DEB76C970FB6F894DEBF0FBECDBF9A834D
S11303B0898389819A81181619060CF048C08981AD
S11303C09A8120E137E2B90186D39A8389838981AE
S11303D09A81883E23E0920754F089819A8128EE1D
S11303E033E0B90178D3CB01682F84E0C2DF89817F
S11303F09A818436910574F089819A8128EE33E0DC
S1130400B90169D324E630E0B90165D3CB01682F83
S113041083E0AFDF89819A818A30910574F0898104
S11304209A8124E630E0B90156D32AE030E0B901DC
S113043052D3CB01682F82E09CDF89819A812AE024
S113044030E0B90148D3682F81E093DF41C089814E
S11304509A819195819591099A83898389819A8159
S113046028EE33E0B90137D39A83898384E090E09E
S113047038D089819A818436910574F089819A8172
S113048028EE33E0B90127D324E630E0B90123D3C1
S1130490CB01682F83E06DDF89819A818A309105D1
S11304A074F089819A8124E630E0B90114D32AE0FA
S11304B030E0B90110D3CB01682F82E05ADF898183
S11304C09A812AE030E0B90106D3682F81E051DF38
S11304D06C960FB6F894DEBF0FBECDBFDF91CF91FF
S11304E00895CF93DF9300D000D0CDB7DEB79A83C1
S11304F0898380E0BADE89819A8125E030E0B90100
S1130500EAD281DE8FE290E02AE0FC012083000041
S11305108EE290E0FC0180818823D4F780E0C5DE80
S11305200F900F900F900F90DF91CF910895CF937C
S1130530DF93CDB7DEB7A4970FB6F894DEBF0FBE36
S1130540CDBF69877A878B879C8720E030E0A9013B
S113055069857A858B859C8557D218160CF06FC0F7
S113056069857A858B859C856CD1DC01CB019A8366
S1130570898389819A81AA2797FDA095BA2FBC0106
S1130580CD0192D1DC01CB019C01AD0169857A8555
S11305908B859C85EDD0DC01CB0120E030E048EC7C
S11305A052E4BC01CD0134D2DC01CB01BC01CD014C
S11305B048D1DC01CB019C838B8389819A8124E619
S11305C030E0B90188D29A83898389819A818A30FB
S11305D0910574F089819A8124E630E0B9017BD2D7
S11305E02AE030E0B90177D2CB01682F84E0C1DE84
S11305F089819A812AE030E0B9016DD28058682F50
S113060083E0B7DE8B819C818A30910574F08B8105
S11306109C8124E630E0B9015ED22AE030E0B901E1
S11306205AD2CB01682F82E0A4DE8B819C812AE020
S113063030E0B90150D2682F81E09BDE67C0898524
S11306409A85AB85BC85B05889879A87AB87BC8768
S113065069857A858B859C85F4D0DC01CB019E83EA
S11306608D838D819E81AA2797FDA095BA2FBC0109
S1130670CD011AD1DC01CB019C01AD0169857A85DC
S11306808B859C8575D0DC01CB0120E030E048EC03
S113069052E4BC01CD01BCD1DC01CB01BC01CD01D4
S11306A0D0D0DC01CB0198878F8384E090E019DF00
S11306B08D819E8124E630E0B9010DD29E838D8325
S11306C08D819E812AE030E0B90105D28058682FDF
S11306D083E04FDE8F8198858A30910574F08F8195
S11306E0988524E630E0B901F6D12AE030E0B9017A
S11306F0F2D1CB01682F82E03CDE8F8198852AE01D
S113070030E0B901E8D1682F81E033DEA4960FB65A
S1130710F894DEBF0FBECDBFDF91CF910895CF9384
S1130720DF931F92CDB7DEB787E390E021E0FC01B1
S1130730208346DDD9DD81E0898306C0898160E0BC
S113074018DE89818F5F898389818530BCF388EEC7
S113075093E0A5DC64E977E885E491ECE8DE88EED3
S113076093E09DDC81E090E00F90DF91CF910895BC
S11307705058BB27AA270ED00DC1FED030F003D1AC
S113078020F031F49F3F11F41EF4F3C00EF4E09511
S1130790E7FBE9C0E92F0FD180F3BA1762077307AB
S11307A08407950718F071F49EF527C10EF4E095BF
S11307B00B2EBA2FA02D0B01B90190010C01CA0117
S11307C0A0011124FF27591B99F0593F50F4503EC2
S11307D068F11A16F040A22F232F342F4427585FB4
S11307E0F3CF469537952795A795F0405395C9F7CC
S11307F07EF41F16BA0B620B730B840BBAF0915084
S1130800A1F0FF0FBB1F661F771F881FC2F70EC022
S1130810BA0F621F731F841F48F4879577956795F5
S1130820B795F7959E3F08F0B3CF9395880F08F0DE
S11308309927EE0F97958795089571D008F481E074
S1130840089504D06894B111D9C00895BCD088F03B
S11308509F5790F0B92F9927B751A0F0D1F0660FA8
S1130860771F881F991F1AF0BA95C9F712C0B130C3
S113087081F0C3D0B1E00895C0C0672F782F8827D6
S1130880B85F39F0B93FCCF3869577956795B39502
S1130890D9F73EF490958095709561957F4F8F4F71
S11308A09F4F0895E89409C097FB3EF49095809576
S11308B0709561957F4F8F4F9F4F9923A9F0F92F22
S11308C096E9BB279395F695879577956795B795A0
S11308D0F111F8CFFAF4BB0F11F460FF1BC06F5F86
S11308E07F4F8F4F9F4F16C0882311F096E911C098
S11308F0772321F09EE8872F762F05C0662371F0B9
S113090096E8862F70E060E02AF09A95660F771FCC
S1130910881FDAF7880F9695879597F90895990FA8
S11309200008550FAA0BE0E8FEEF16161706E807B5
S1130930F907C0F012161306E407F50798F0621BD6
S1130940730B840B950B39F40A2661F0232B242BAB
S1130950252B21F408950A2609F4A140A6958FEFCA
S1130960811D811D089597F99F6780E870E060E01C
S113097008959FEF80EC089500240A941616170634
S113098018060906089500240A941216130614067C
S113099005060895092E0394000C11F4882352F0DF
S11309A0BB0F40F4BF2B11F460FF04C06F5F7F4F97
S11309B08F4F9F4F089557FD9058440F551F59F07E
S11309C05F3F71F04795880F97FB991F61F09F3F38
S11309D079F087950895121613061406551FF2CF61
S11309E04695F1DF08C0161617061806991FF1CFB1
S11309F086957105610508940895E894BB276627D8
S1130A007727CB0197F908958ADF08F48FEF0895CB
S1130A100BD0C0CFB1DF28F0B6DF18F0952309F072
S1130A20A2CFA7CF1124EACFC6DFA0F3959FD1F3BD
S1130A30950F50E0551F629FF001729FBB27F00D88
S1130A40B11D639FAA27F00DB11DAA1F649F6627DD
S1130A50B00DA11D661F829F2227B00DA11D621F2C
S1130A60739FB00DA11D621F839FA00D611D221FE6
S1130A70749F3327A00D611D231F849F600D211DCA
S1130A80822F762F6A2F11249F5750408AF0E1F06D
S1130A9088234AF0EE0FFF1FBB1F661F771F881FB6
S1130AA091505040A9F79E3F510570F05CCFA6CFFE
S1130AB05F3FECF3983EDCF3869577956795B795A1
S1130AC0F795E7959F5FC1F7FE2B880F911D9695CB
S1130AD0879597F9089597FB072E16F4009406D08E
S1130AE077FD08D00BD007FC05D03EF49095819596
S1130AF09F4F0895709561957F4F0895AA1BBB1B66
S1130B0051E107C0AA1FBB1FA617B70710F0A61B09
S1130B10B70B881F991F5A95A9F780959095BC012A
S10B0B20CD010895F894FFCF04
S9030000FC
